:100000000C9459000C9481000C9481000C94810094
:100010000C9481000C9481000C9481000C9481005C
:100020000C9481000C9481000C9481000C9481004C
:100030000C9481000C9481000C9481000C9481003C
:100040000C9432060C9481000C9400060C94DA0592
:100050000C9481000C9481000C9481000C9481001C
:100060000C947C060C948100000000002500280000
:100070002B00040404040404040402020202020229
:10008000030303030303010204081020408001025C
:1000900004081020010204081020000000080002DB
:1000A0000100000304070000000000000000AA0790
:1000B000160911241FBECFEFD8E0DEBFCDBF22E06E
:1000C000A0E6B1E001C01D92AF3CB207E1F711E03C
:1000D000A0E0B1E0E0EFF6E102C005900D92A0369D
:1000E000B107D9F710E0C8E5D0E004C02197FE01C0
:1000F0000E945909C735D107C9F70E9414080C940A
:100100006B0B0C9400002091FC019091FB012132BB
:1001100008F04AC08091D8018111FCCF32E03093C1
:10012000D80131E03093D7013FEF3093D6011092E0
:10013000D5012093D401ABEDB1E044EB51E0FA01DD
:100140003E2F341B321718F43D913193F9CF1092A2
:10015000B3012091B301990F922B9093B301909129
:10016000B201913061F41092B2019091B301909379
:10017000BB009091BC0093FDF8CF95EC01C095EECB
:100180009093BC009091D8019230E1F39091D60108
:100190009F3F79F08091D601803241F08091D60165
:1001A000803331F084E005C081E003C082E001C00B
:1001B00083E01092DA011092FC011092D9010895A7
:1001C0002FB7F8948091AE019091AF01A091B0014A
:1001D000B091B1012FBF8093050290930602A093C6
:1001E0000702B0930802E091FD01F091FE01028444
:1001F000F385E02D8DEF91E0099597FF26C02FB78D
:10020000F8948091AE019091AF01A091B001B091AE
:10021000B1012FBF40910502509106026091070283
:1002200070910802841B950BA60BB70B409101023D
:1002300050910202609103027091040284179507A5
:10024000A607B70780F28FEF9FEF08950895CF922A
:10025000DF92EF92FF920F931F93CF93DF936C0186
:100260007A018B01C0E0D0E0CE15DF0589F0D8011E
:100270006D918D01D601ED91FC910190F081E02D01
:10028000C6010995892B11F47E0102C02196ECCF9D
:10029000C701DF91CF911F910F91FF90EF90DF90F9
:1002A000CF900895FC01448155816081718186EA77
:1002B00092E00C942701FC01538D448D252F30E0F2
:1002C000842F90E0821B930B541710F0CF96089563
:1002D00001970895FC01918D828D981761F0828DB0
:1002E000DF01A80FB11D5D968C91928D9F5F9F736A
:1002F000928F90E008958FEF9FEF0895FC01918D0C
:10030000828D981731F0828DE80FF11D858D90E078
:1003100008958FEF9FEF0895FC01918D228D892F15
:1003200090E0805C9F4F821B91098F7399270895FD
:100330008DEF91E00E948C0121E0892B09F420E0EF
:10034000822F0895FC01848DDF01A80FB11DA35AEF
:10035000BF4F2C91848D90E001968F739927848FE5
:10036000A689B7892C93A089B1898C9180648C93DC
:10037000938D848D981306C00288F389E02D8081C7
:100380008F7D80830895EF92FF920F931F93CF93F9
:10039000DF93EC0181E0888F9B8D8C8D981305C0D5
:1003A000E889F989808185FD24C0F62E0B8D10E047
:1003B0000F5F1F4F0F731127E02E8C8DE8120CC0BA
:1003C0000FB607FCFACFE889F989808185FFF5CF60
:1003D000CE010E94A201F1CF8B8DFE01E80FF11D2D
:1003E000E35AFF4FF0820B8FEA89FB89808180629C
:1003F00007C0EE89FF896083E889F989808180647C
:10040000808381E090E0DF91CF911F910F91FF9069
:10041000EF900895CF93DF93EC01888D8823C9F086
:10042000EA89FB89808185FD05C0A889B9898C91FD
:1004300086FD0FC00FB607FCF5CF808185FFF2CF98
:10044000A889B9898C9185FFEDCFCE010E94A201C8
:10045000E7CFDF91CF91089580E090E0892B29F0DC
:100460000E94980181110C940000089590E0FC0115
:10047000E656FF4F3491FC01EA57FF4F2491FC01EF
:10048000EE58FF4FE491EE2309F43BC0332339F1DA
:10049000333091F038F43130A9F0323001F584B5C1
:1004A0008F7D12C0373091F03830A1F03430B9F47C
:1004B000809180008F7D03C0809180008F77809332
:1004C00080000DC084B58F7784BD09C08091B000D5
:1004D0008F7703C08091B0008F7D8093B000F0E0F3
:1004E000EE0FFF1FE859FF4FA591B4918FB7F89415
:1004F000EC91611103C020952E2301C02E2B2C936B
:100500008FBF08953FB7F8948091AA019091AB01F5
:10051000A091AC01B091AD0126B5A89B05C02F3FBD
:1005200019F00196A11DB11D3FBFBA2FA92F982F19
:100530008827820F911DA11DB11DBC01CD0142E094
:10054000660F771F881F991F4A95D1F7089521E0FC
:1005500001C0220F6A95EAF7DC011C962C931C97C8
:100560001A965C934E931997ED91FC910484F5854E
:10057000E02D60E00994DC01ED91FC910684F785A3
:10058000E02D41E0099581E090E00895DC01ED91D6
:10059000FC910684F785E02D40E00994CF93DF932A
:1005A000CDB7DEB728970FB6F894DEBF0FBECDBF2C
:1005B0001D8290E49E8324E12F8324E528871982FD
:1005C0009A8390E19B8390E59C832091AD028217F2
:1005D00010F08FEF820F3091AE0290E0FE01E80F35
:1005E000F91F303121F4243011F4618101C065819B
:1005F000606886EA92E028960FB6F894DEBF0FBED8
:10060000CDBFDF91CF910C94C6028F929F92AF9293
:10061000BF92CF92DF92EF92FF920F931F93CF93EF
:10062000DF93EC01423018F08C8188608C834F831B
:100630006887222329F0413019F48C8184608C83EF
:100640000E9482024B015C0184E6C82ED12CE12C71
:10065000F12C0E948202DC01CB0188199909AA09B8
:10066000BB09883E9340A105B10558F021E0C21AAC
:10067000D108E108F10888EE880E83E0981EA11CDD
:10068000B11CC114D104E104F10419F76C8164FDBB
:1006900031C0E881F9810684F785E02D42E063E00E
:1006A000CE0109958BE496E40197F1F7E881F98191
:1006B0000684F785E02D42E063E0CE01099503E56D
:1006C00012E0C8010197F1F7E881F9810684F78506
:1006D000E02D42E063E0CE010995C8010197F1F7F2
:1006E000E881F9810684F785E02D42E062E0CE01E1
:1006F000099517C06062CE010E94C6028BE496E4A1
:100700000197F1F76C816062CE010E94C60203E599
:1007100012E0C8010197F1F76C816062CE010E947E
:10072000C602C8010197F1F76C816062CE010E9498
:10073000C6028BEE90E00197F1F784E08D836CE0C8
:10074000CE010E94C60261E0CE010E94C6028BE388
:100750009FE10197F1F782E08E8366E0CE010E946F
:10076000C602E881F9810484F585E02D6FEFCE01A2
:10077000DF91CF911F910F91FF90EF90DF90CF907D
:10078000BF90AF909F908F9009940895089585ED44
:100790008093BC008091BC0084FDFCCF1092D801F6
:1007A000089540918201262F30E0240F311D21321F
:1007B0003105DCF42091D8012430C9F4FC0180E03B
:1007C00090E0861758F4309182012191DC01A05A03
:1007D000BE4FA30FB11D2C930196F3CF80918201E0
:1007E000680F6093820180E0089581E0089582E0BF
:1007F0000895089581E090E03091A8012091A7012B
:10080000321710F480E090E0919581959109089558
:100810008091A8019091A701891730F48F5F809390
:10082000A80180E090E008958FEF9FEF08958091F8
:10083000A70190E02091A801821B91090895CF9211
:10084000DF92EF92FF920F931F93CF93DF937C0180
:10085000262F972F8A018091D901882391F0C62FE6
:10086000D72F6E01C40ED51ECC15DD0571F0699130
:10087000D701ED91FC910190F081E02DC701099520
:10088000F3CF642F822F0E94D103C801DF91CF9153
:100890001F910F91FF90EF90DF90CF900895CF932D
:1008A000DF931F92CDB7DEB769832091D901222350
:1008B000D1F02091FC01203240F021E030E0FC0139
:1008C0003383228380E090E015C08091DA01E82F25
:1008D000F0E0E552FE4F998190838F5F8093DA01BB
:1008E0008093FC0105C061E0CE0101960E94D10316
:1008F00081E090E00F90DF91CF910895FC0123817A
:100900002223B9F09181909569236083828191E0DF
:100910009093D9018093FB011092DA011092FC01AF
:100920008AE992E00E944F040E948300282F30E061
:1009300002C020E030E081E090E0232B11F080E065
:1009400090E00895EF92FF920F931F93CF938C0145
:10095000FC01759684E0C0E060FF02C09081C92B65
:100960006695815031968111F7CF413011F4F8012D
:100970004489F8018585C82BC42B7801FEE0EF0E71
:10098000F11CF80162896C2BC7010E947E04F801FA
:10099000628960956C23C701CF911F910F91FF90E1
:1009A000EF900C947E040F931F93CF93DF93062F49
:1009B0000F70423019F440E0602F10C0142F262F22
:1009C000EC0130E0B90184E0759567958A95E1F70F
:1009D000CE010E94A204412F602FCE01DF91CF9162
:1009E0001F910F910C94A204FC0184858823A9F027
:1009F000218532852115310519F4611106C007C022
:100A00002130310521F4611102C0858701C01586AE
:100A10006585CF010E960C947E040895EF92FF92A7
:100A20000F931F93CF93DF93EC01062FF42EE22E4A
:100A30008B85888B1092A8011092A7011092DA0181
:100A40001092FC011092D80111E01093D70110927E
:100A5000B20161E082E10E94360261E083E10E941E
:100A600036028091B9008E7F8093B9008091B900E1
:100A70008D7F8093B90088E48093B80085E48093EB
:100A8000BC0088891093D9018093FB011092DA0190
:100A90001092FC010E94830091E0811190E0998BFB
:100AA000992329F08AE992E00E9408048E878989B7
:100AB000882339F01F861C8260E0CE010E960E94CA
:100AC0007E042E2D4F2D602FCE01DF91CF911F91EF
:100AD0000F91FF90EF900C940503089580E090E053
:100AE00008950E94560B0F931F93CF93DF93EC0151
:100AF00088819981009729F02A813B812617370741
:100B000088F48B016F5F7F4F0E948C0A009761F021
:100B1000998388831B830A832C813D81232B11F4C5
:100B2000FC01108281E001C080E0DF91CF911F9134
:100B30000F910895EF92FF920F931F93CF93DF933E
:100B4000EC01198218821B821A821D821C82611597
:100B5000710549F18B01FB0101900020E9F7319704
:100B60007F01E61AF70AB7010E94730528813981CF
:100B700081110DC02115310519F0C9010E94F40938
:100B8000198218821D821C821B821A820CC0FD826F
:100B9000EC82B801C901DF91CF911F910F91FF90B5
:100BA000EF900C94640BDF91CF911F910F91FF9008
:100BB000EF9008951F920F920FB60F9211242F936A
:100BC0003F934F935F936F937F938F939F93AF93D5
:100BD000BF93EF93FF938DEF91E00E94A201FF91ED
:100BE000EF91BF91AF919F918F917F916F915F91A5
:100BF0004F913F912F910F900FBE0F901F9018951E
:100C00001F920F920FB60F9211242F938F939F93E1
:100C1000EF93FF93E0910D02F0910E028081E0913D
:100C20001302F091140282FD12C09081809116028D
:100C30008F5F8F7320911702821751F0E091160297
:100C4000F0E0E350FE4F958F8093160201C0808143
:100C5000FF91EF919F918F912F910F900FBE0F9069
:100C60001F9018951F920F920FB60F9211242F9379
:100C70003F938F939F93AF93BF938091AE019091D9
:100C8000AF01A091B001B091B1013091A90123E071
:100C9000230F2D3720F40196A11DB11D05C026E8B4
:100CA000230F0296A11DB11D2093A9018093AE01CF
:100CB0009093AF01A093B001B093B1018091AA01CC
:100CC0009091AB01A091AC01B091AD010196A11D35
:100CD000B11D8093AA019093AB01A093AC01B09396
:100CE000AD01BF91AF919F918F913F912F910F9047
:100CF0000FBE0F901F9018951F920F920FB60F9274
:100D000011242F933F934F935F936F937F938F9310
:100D10009F93AF93BF93EF93FF938091B900887F28
:100D2000803609F49CC068F5883209F45BC090F401
:100D3000803109F454C038F4882309F4F6C08830AF
:100D400009F44DC0F6C0883109F44CC0803209F472
:100D50005DC0EFC0803409F468C048F4803309F402
:100D600055C0883309F0E5C08093D601D8C08035DE
:100D700009F44FC0883509F45DC0883409F0D9C042
:100D8000D6C0883909F4C7C0A8F4883709F467C009
:100D900038F4883609F463C0803709F460C0C9C0EC
:100DA000883809F4B8C0803909F45FC0803809F088
:100DB000C0C05BC0803B09F486C038F4803A09F4B7
:100DC00066C0883A09F47FC0B4C0803C09F4A7C06B
:100DD000883C09F4A4C0883B09F48AC0AAC0809169
:100DE000B30110C09091D5018091D401981770F58E
:100DF000E091D50181E08E0F8093D501F0E0EC54B5
:100E0000FE4F80818093BB0085EC86C08093D60125
:100E10008EC0E091D50181E08E0F8093D501809145
:100E2000BB00F0E0EC54FE4F80839091D50180919F
:100E3000D4016EC0E091D50181E08E0F8093D50181
:100E40008091BB00F0E0EC54FE4F80838091D7018D
:100E500081116DC081E08093B20184EA61C083E0BA
:100E60008093D8011092A601CFCF8091A601803245
:100E700008F051C0E091A60181E08E0F8093A60199
:100E80008091BB00F0E0EA57FE4F8083BDCF85EC38
:100E90008093BC001092D8018091A601803230F47A
:100EA000E091A601F0E0EA57FE4F10826091A601A2
:100EB00070E0E0918401F091850186E891E0099568
:100EC0001092A60136C084E08093D801109283016D
:100ED00010928201E0918001F09181010995809149
:100EE0008201811105C081E080938201109260012E
:100EF000E091830181E08E0F80938301F0E0E05A5E
:100F0000FE4F80818093BB0090918301809182018C
:100F1000981708F479CF85E88093BC000AC085EC67
:100F20008093BC001092D80104C01092D6010E9498
:100F3000C703FF91EF91BF91AF919F918F917F91E7
:100F40006F915F914F913F912F910F900FBE0F9036
:100F50001F901895EDEFF1E01382128288EE93E076
:100F6000A0E0B0E084839583A683B7832AE031E0D4
:100F70003183208325EC30E03587248724EC30E072
:100F80003787268720EC30E0318B208B21EC30E056
:100F9000338B228B22EC30E0358B248B26EC30E037
:100FA000378B268B118E128E138E148EEAE9F2E0A7
:100FB0001382128284839583A683B7838CE191E0A8
:100FC000918380836EE371E085EC92E00E949A0544
:100FD0006FE471E08FEB92E00E949A05E6EAF2E09E
:100FE000138212828EE291E091838083108A8FEFC8
:100FF00087871686118A80E2838714861586128673
:10100000118694E0928B92E0938B91E0948B90E127
:10101000958B868B80E4878B80E8808F40E050E062
:1010200063E0CF010C94A702CF93DF93CDB7DEB777
:1010300028970FB6F894DEBF0FBECDBF789484B565
:10104000826084BD84B5816084BD85B5826085BDC4
:1010500085B5816085BD80916E00816080936E0052
:101060001092810080918100826080938100809144
:1010700081008160809381008091800081608093F5
:1010800080008091B10084608093B1008091B000B5
:1010900081608093B00080917A00846080937A00B0
:1010A00080917A00826080937A0080917A008160DA
:1010B00080937A0080917A00806880937A00109201
:1010C000C100E0910D02F0910E0282E08083E09178
:1010D0000902F0910A021082E0910B02F0910C02D9
:1010E0008FEC808310921502E0911102F0911202B0
:1010F00086E08083E0910F02F09110028081806190
:101100008083E0910F02F0911002808188608083DB
:10111000E0910F02F0911002808180688083E0915D
:101120000F02F091100280818F7D808320E042E0E9
:1011300060E186EA92E00E940E0580E00E94CE0205
:1011400085EC92E00E94520181E00E94CE028FEB7A
:1011500092E00E9452018DEF91E00E948C01892B58
:1011600009F458C06EE471E0CE0101960E949A0520
:101170000E94E00097FD1BC08F8318860D811E81A1
:101180000F5F1F4FB801CE0101960E94730588239F
:1011900079F329813A818D819E81BE01695F7F4FFC
:1011A000820F931F0E94640B1E830D83E1CF8091F9
:1011B000BF029091C002009781F069817A81611528
:1011C000710549F04091C1025091C2022D813E81CA
:1011D0004217530710F50E94F40989819A81909370
:1011E000C0028093BF028B819C819093C202809346
:1011F000C1028D819E819093C4028093C3021A82A2
:1012000019821C821B821E821D8289819A810E9402
:10121000F4099ACF0E942C029ECF0E94640B8D810C
:101220009E819093C4028093C302EDCF8091BF0250
:101230009091C0020E94F4098091C5029091C6026B
:101240000C94F4092F923F924F925F926F927F928B
:101250008F929F92AF92BF92CF92DF92EF92FF92C6
:101260000F931F93CF93DF93CDB7DEB7CA1BDB0B72
:101270000FB6F894DEBF0FBECDBF09942A88398817
:1012800048885F846E847D848C849B84AA84B9841E
:10129000C884DF80EE80FD800C811B81AA81B9812A
:1012A000CE0FD11D0FB6F894DEBF0FBECDBFED013E
:1012B0000895EE0FFF1F0590F491E02D0994CF9350
:1012C000DF938230910510F482E090E0E091CD024E
:1012D000F091CE0220E030E0C0E0D0E0309711F194
:1012E0004081518148175907C0F04817590761F4E8
:1012F00082819381209719F09B838A832BC09093DE
:10130000CE028093CD0226C02115310519F0421777
:10131000530718F49A01BE01DF01EF010280F38147
:10132000E02DDCCF2115310509F1281B390B2430C4
:10133000310590F412968D919C911397611571056A
:1013400021F0FB019383828304C09093CE028093AB
:10135000CD02FD01329644C0FD01E20FF31F8193DF
:101360009193225031092D933C933AC02091CB02A6
:101370003091CC02232B41F42091020130910301E2
:101380003093CC022093CB022091000130910101D7
:101390002115310541F42DB73EB74091040150911C
:1013A0000501241B350BE091CB02F091CC02E21732
:1013B000F307A0F42E1B3F0B2817390778F0AC0178
:1013C0004E5F5F4F2417350748F04E0F5F1F509355
:1013D000CC024093CB028193919302C0E0E0F0E015
:1013E000CF01DF91CF9108950F931F93CF93DF9398
:1013F000009709F48CC0FC0132971382128200918D
:10140000CD021091CE020115110581F420813181A8
:10141000820F931F2091CB023091CC0228173907FD
:1014200079F5F093CC02E093CB0271C0D80140E093
:1014300050E0AE17BF0750F412962D913C911397D0
:10144000AD012115310509F1D901F3CF9D01DA0173
:101450003383228360817181860F971F82179307E0
:1014600069F4EC0128813981260F371F2E5F3F4F29
:10147000318320838A819B8193838283452B29F446
:10148000F093CE02E093CD0242C01396FC93EE930C
:101490001297ED01499159919E01240F351FE217D2
:1014A000F30771F480819181840F951F0296119644
:1014B0009C938E938281938113969C938E93129723
:1014C000E0E0F0E0D80112968D919C91139700977F
:1014D00019F0F8018C01F6CF8D919C9198012E5F47
:1014E0003F4F820F931F2091CB023091CC022817DF
:1014F000390769F4309729F41092CE021092CD0288
:1015000002C0138212821093CC020093CB02DF91AF
:10151000CF911F910F910895A0E0B0E0E2E9FAE0C9
:101520000C942609EC01009721F4CB010E945F097D
:10153000B8C0FC01E60FF71F9C0122503109E217E9
:10154000F30708F4ACC0D9010D911C91119706174F
:101550001707B0F00530110508F49FC0C8010497C3
:101560008617970708F499C002501109061B170B3C
:10157000019311936D937C93CF010E94F4098DC068
:101580005B01A01AB10A4C01800E911EA091CD0200
:10159000B091CE0240E050E0E12CF12C109709F41C
:1015A0004AC0A815B905D1F56D907C9011976301DB
:1015B00082E0C80ED11CCA14DB0480F1A3014A19D1
:1015C0005B096A0182E0C80ED11C1296BC9012978A
:1015D0001396AC91B5E0CB16D10440F0B282A38350
:1015E00051834083D9016D937C930AC00E5F1F4FD6
:1015F000C301800F911FF90191838083EB2DFA2F96
:10160000E114F10431F0D7011396FC93EE93129795
:1016100044C0F093CE02E093CD023FC08D919C91E7
:1016200011974817590708F4AC017D0112960D90E7
:10163000BC91A02DB3CF8091CB029091CC028815A4
:101640009905E1F446175707C8F48091000190917D
:101650000101009741F48DB79EB74091040150916C
:101660000501841B950BE817F907C8F4F093CC0229
:10167000E093CB02F901718360830FC0CB010E941C
:101680005F097C01009759F0A801BE010E945B0B25
:10169000CE010E94F409C70104C0CE0102C080E05F
:1016A00090E0CDB7DEB7EEE00C94420981E090E027
:1016B000F8940C946B0BFB01DC0102C001900D92BD
:1016C00041505040D8F70895FB01DC0101900D9284
:1016D0000020E1F7089510E0C8E5D0E004C0FE0165
:1016E0000E9459092196C935D107C9F7F894FFCF4F
:1016F0000000CF02800000000000C30127015B0151
:101700000A028C016A017E01000000004F041F04E0
:101710006E05F90317040804FA0300000000BB0279
:1017200027016E056D050E05A702F404D304536F5F
:101730007520446973706C617920313678320043CA
:101740006F6D756E69636F20566961204932430081
:00000001FF
