:100000000C9458000C9480000C9480000C94800098
:100010000C9480000C9480000C9480000C94800060
:100020000C9480000C9480000C9480000C94800050
:100030000C9480000C9480000C9480000C94800040
:100040000C947C040C9480000C944A040C942404BA
:100050000C9480000C9480000C9480000C94800020
:100060000C94C6040C9480000000000025002800B9
:100070002B00040404040404040402020202020229
:10008000030303030303010204081020408001025C
:1000900004081020010204081020000000080002DB
:1000A0000100000304070000000000000000F40548
:1000B00011241FBECFEFD8E0DEBFCDBF11E0A0E01E
:1000C000B1E0EAE3F5E102C005900D92AC35B1076D
:1000D000D9F722E0ACE5B1E001C01D92A43CB20723
:1000E000E1F710E0C8E5D0E004C02197FE010E94CE
:1000F000900AC735D107C9F70E942D060C949B0AB8
:100100000C94000090E0FC01E656FF4F2491FC01A6
:10011000EA57FF4F3491FC01EE58FF4FE491EE2374
:10012000B1F1222339F1233091F038F42130A9F0D4
:10013000223001F584B58F7D12C0273091F0283030
:10014000A1F02430B9F4809180008F7D03C08091AC
:1001500080008F77809380000DC084B58F7784BD39
:1001600009C08091B0008F7703C08091B0008F7D6F
:100170008093B000F0E0EE0FFF1FE859FF4FA5910C
:10018000B4918FB7F894EC913E2B3C938FBF0895B8
:100190008091180290E020911702821B9109089526
:1001A000CF92DF92EF92FF920F931F93CF93DF9343
:1001B0006C017A018B01C0E0D0E0CE15DF0589F03B
:1001C000D8016D918D01D601ED91FC910190F081E6
:1001D000E02DC6010995892B11F47E0102C02196FC
:1001E000ECCFC701DF91CF911F910F91FF90EF905E
:1001F000DF90CF900895FC01538D448D252F30E082
:10020000842F90E0821B930B541710F0CF96089523
:1002100001970895FC01918D828D981761F0828D70
:10022000DF01A80FB11D5D968C91928D9F5F9F732A
:10023000928F90E008958FEF9FEF0895FC01918DCC
:10024000828D981731F0828DE80FF11D858D90E039
:1002500008958FEF9FEF0895FC01918D228D892FD6
:1002600090E0805C9F4F821B91098F7399270895BE
:100270008BE192E00E942C0121E0892B09F420E01F
:10028000822F0895FC01848DDF01A80FB11DA35AB0
:10029000BF4F2C91848D90E001968F739927848FA6
:1002A000A689B7892C93A089B1898C9180648C939D
:1002B000938D848D981306C00288F389E02D808188
:1002C0008F7D80830895EF92FF920F931F93CF93BA
:1002D000DF93EC0181E0888F9B8D8C8D981305C096
:1002E000E889F989808185FD24C0F62E0B8D10E008
:1002F0000F5F1F4F0F731127E02E8C8DE8120CC07B
:100300000FB607FCFACFE889F989808185FFF5CF20
:10031000CE010E944201F1CF8B8DFE01E80FF11D4D
:10032000E35AFF4FF0820B8FEA89FB89808180625C
:1003300007C0EE89FF896083E889F989808180643C
:10034000808381E090E0DF91CF911F910F91FF902A
:10035000EF900895CF93DF93EC01888D8823C9F047
:10036000EA89FB89808185FD05C0A889B9898C91BE
:1003700086FD0FC00FB607FCF5CF808185FFF2CF59
:10038000A889B9898C9185FFEDCFCE010E944201E9
:10039000E7CFDF91CF91089580E090E0892B29F09D
:1003A0000E94380181110C94000008953FB7F89421
:1003B0008091A8019091A901A091AA01B091AB01EF
:1003C00026B5A89B05C02F3F19F00196A11DB11DB0
:1003D0003FBFBA2FA92F982F8827820F911DA11DEB
:1003E000B11DBC01CD0142E0660F771F881F991F28
:1003F0004A95D1F708958F929F92AF92BF92CF9274
:10040000DF92EF92FF920E94D6014B015C018AEFCE
:10041000C82ED12CE12CF12C0E94D601DC01CB019D
:1004200088199909AA09BB09883E9340A105B1051D
:1004300058F021E0C21AD108E108F10888EE880ED0
:1004400083E0981EA11CB11CC114D104E104F10485
:1004500019F7FF90EF90DF90CF90BF90AF909F90F3
:100460008F90089585ED8093BC008091BC0084FD41
:10047000FCCF1092F601089540917E01262F30E0C6
:10048000240F311D21323105DCF42091F601243096
:10049000C9F4FC0180E090E0861758F430917E01A9
:1004A0002191DC01A45ABE4FA30FB11D2C930196DC
:1004B000F3CF80917E01680F60937E0180E0089504
:1004C00081E0089582E008950895E09117028091F7
:1004D0001802E81730F4F0E0E950FE4F808190E018
:1004E00008958FEF9FEF0895909117028091180261
:1004F000981750F4E92FF0E0E950FE4F208130E0EA
:100500009F5F9093170202C02FEF3FEFC90108953C
:10051000CF92DF92EF92FF920F931F93CF93DF93CF
:100520007C01262F972F8A018091AC01882391F0BE
:10053000C62FD72F6E01C40ED51ECC15DD0571F068
:100540006991D701ED91FC910190F081E02DC701F7
:100550000995F3CF642F822F0E943C02C801DF91DE
:10056000CF911F910F91FF90EF90DF90CF90089562
:10057000CF93DF931F92CDB7DEB769832091AC0193
:100580002223D1F02091CF01203240F021E030E051
:10059000FC013383228380E090E015C08091AD019F
:1005A000E82FF0E0E255FE4F998190838F5F8093B2
:1005B000AD018093CF0105C061E0CE0101960E949C
:1005C0003C0281E090E00F90DF91CF910895089573
:1005D00080E090E00895009769F0FC010190002010
:1005E000E9F73197AF01481B590BBC018BE192E051
:1005F0000C94D00080E090E008958F929F92AF928B
:10060000BF920F931F93CF93DF93CDB7DEB7A19720
:100610000FB6F894DEBF0FBECDBF19A2423008F46A
:100620004AE08E010F5D1F4F842E912CA12CB12C1E
:10063000A50194010E941C08E62FB901CA010150CE
:100640001109EA3014F4E05D01C0E95CD801EC93D3
:10065000232B242B252B61F7C8010E94EB02A196C6
:100660000FB6F894DEBF0FBECDBFDF91CF911F91C3
:100670000F91BF90AF909F908F9008954F925F928F
:100680006F927F928F929F92AF92BF92CF92DF92A2
:10069000EF92FF926B017C01B42E9B01AC010E9492
:1006A000840A882319F084E291E027C026013701EB
:1006B000E89477F82FEF3FEF4FE75FE7C301B20110
:1006C0000E94840A81110DC02FEF3FEF4FE75FE7D3
:1006D000C301B2010E94BA0818161CF488E291E026
:1006E0000CC02FEF3FEF4FE75FE4C701B6010E9458
:1006F000120A181684F48CE291E0FF90EF90DF90DC
:10070000CF90BF90AF909F908F907F906F905F90B1
:100710004F900C94EB022FEF3FEF4FE75FECC701D8
:10072000B6010E94BA0887FDE6CF20E030E0A901BB
:10073000C701B6010E94BA0887FF11C0E0911B02F1
:10074000F0911C020190F081E02D6DE28BE192E0CE
:1007500009954C01F7FAF094F7F8F09402C0812C57
:10076000912CA12C60E070E080E09FE3AB1441F09D
:1007700020E030E040E251E40E94BF08A394F6CFAD
:100780009B01AC01C701B6010E944E082B013C0140
:100790000E9431096B017C010E9460099B01AC0140
:1007A000C301B2010E944D082B013C014AE0C70180
:1007B000B6010E94FD027C01E80CF91CBB2069F027
:1007C000E0911B02F0911C020190F081E02D6EE29D
:1007D0008BE192E00995E80EF91EDB2CDD2021F17A
:1007E00020E030E040E251E4C301B2010E94170A68
:1007F0002B013C010E9431094B01A12CB12C4AE094
:10080000C501B4010E94FD02E80EF91EC501B40144
:100810000E9460099B01AC01C301B2010E944D0816
:100820002B013C01DA94DACFC701FF90EF90DF9003
:10083000CF90BF90AF909F908F907F906F905F9080
:100840004F9008950E94960A1F920F920FB60F9232
:1008500011242F933F934F935F936F937F938F93C5
:100860009F93AF93BF93EF93FF938BE192E00E942E
:100870004201FF91EF91BF91AF919F918F917F9135
:100880006F915F914F913F912F910F900FBE0F90FD
:100890001F9018951F920F920FB60F9211242F934D
:1008A0008F939F93EF93FF93E0912B02F0912C0293
:1008B0008081E0913102F091320282FD12C090817C
:1008C000809134028F5F8F7320913502821751F02F
:1008D000E0913402F0E0E55EFD4F958F80933402A5
:1008E00001C08081FF91EF919F918F912F910F9087
:1008F0000FBE0F901F9018951F920F920FB60F9278
:1009000011242F933F938F939F93AF93BF93809125
:10091000A4019091A501A091A601B091A7013091E9
:10092000A30123E0230F2D3720F40196A11DB11D53
:1009300005C026E8230F0296A11DB11D2093A30137
:100940008093A4019093A501A093A601B093A70161
:100950008091A8019091A901A091AA01B091AB0149
:100960000196A11DB11D8093A8019093A901A093A8
:10097000AA01B093AB01BF91AF919F918F913F912D
:100980002F910F900FBE0F901F9018951F920F92EE
:100990000FB60F9211242F933F934F935F936F9352
:1009A0007F938F939F93AF93BF93EF93FF93809128
:1009B000B900887F803609F49CC068F5883209F454
:1009C0005BC090F4803109F454C038F4882309F4F2
:1009D000F6C0883009F44DC0F6C0883109F44CC027
:1009E000803209F45DC0EFC0803409F468C048F477
:1009F000803309F455C0883309F0E5C08093F401D1
:100A0000D8C0803509F44FC0883509F45DC08834FA
:100A100009F0D9C0D6C0883909F4C7C0A8F488370E
:100A200009F467C038F4883609F463C0803709F4E4
:100A300060C0C9C0883809F4B8C0803909F45FC003
:100A4000803809F0C0C05BC0803B09F486C038F430
:100A5000803A09F466C0883A09F47FC0B4C0803C8B
:100A600009F4A7C0883C09F4A4C0883B09F48AC0F3
:100A7000AAC08091F10110C09091F3018091F20120
:100A8000981770F5E091F30181E08E0F8093F301E8
:100A9000F0E0E053FE4F80818093BB0085EC86C080
:100AA0008093F4018EC0E091F30181E08E0F80937A
:100AB000F3018091BB00F0E0E053FE4F8083909102
:100AC000F3018091F2016EC0E091F30181E08E0F9D
:100AD0008093F3018091BB00F0E0E053FE4F8083F0
:100AE0008091F50181116DC081E08093F00184EA6D
:100AF00061C083E08093F6011092A201CFCF809174
:100B0000A201803208F051C0E091A20181E08E0F75
:100B10008093A2018091BB00F0E0EE57FE4F8083EE
:100B2000BDCF85EC8093BC001092F6018091A201AC
:100B3000803230F4E091A201F0E0EE57FE4F1082D7
:100B40006091A20170E0E0918001F091810182E862
:100B500091E009951092A20136C084E08093F601DD
:100B600010927F0110927E01E0917C01F0917D0155
:100B7000099580917E01811105C081E080937E01FD
:100B800010925C01E0917F0181E08E0F80937F01E4
:100B9000F0E0E45AFE4F80818093BB0090917F018A
:100BA00080917E01981708F479CF85E88093BC0086
:100BB0000AC085EC8093BC001092F60104C010922C
:100BC000F4010E943202FF91EF91BF91AF919F918A
:100BD0008F917F916F915F914F913F912F910F90E6
:100BE0000FBE0F901F901895EBE1F2E01382128276
:100BF00088EE93E0A0E0B0E084839583A683B7837A
:100C000024E031E03183208325EC30E035872487F0
:100C100024EC30E03787268720EC30E0318B208BC6
:100C200021EC30E0338B228B22EC30E0358B248BAF
:100C300026EC30E0378B268B118E128E138E148E9D
:100C4000E8EBF2E01382128284839583A683B78354
:100C500086E191E0918380830895789484B58260E1
:100C600084BD84B5816084BD85B5826085BD85B550
:100C7000816085BD80916E00816080936E001092CE
:100C80008100809181008260809381008091810049
:100C900081608093810080918000816080938000DA
:100CA0008091B10084608093B1008091B000816038
:100CB0008093B00080917A00846080937A00809164
:100CC0007A00826080937A0080917A0081608093BC
:100CD0007A0080917A00806880937A001092C10037
:100CE00010921702109218021092AD011092CF01CB
:100CF0001092F60181E08093F5011092F00182E1FB
:100D00000E94820083E10E9482008091B9008E7F60
:100D10008093B9008091B9008D7F8093B90088E4F9
:100D20008093B80085E48093BC00E0912B02F091A1
:100D30002C0282E08083E0912702F0912802108249
:100D4000E0912902F0912A028FEC80831092330205
:100D5000E0912F02F091300286E08083E0912D0235
:100D6000F0912E02808180618083E0912D02F091CC
:100D70002E02808188608083E0912D02F0912E0206
:100D8000808180688083E0912D02F0912E02808125
:100D90008F7D8083C1E088248A9480ED282E81E0B5
:100DA000382ED5EE95EC992ECC24CA9423E0D22E81
:100DB000E12CF12C37EFA32E31E0B32EC093AC0120
:100DC0008CE28093CE011092AD011092CF0160E0D1
:100DD00088EB92E00E94B8026091190288EB92E0E1
:100DE0000E94B8028091CF01813208F042C09091F8
:100DF000F6019111FCCF92E09093F601C093F501BA
:100E00008092F4011092F3018093F201AEEAB1E016
:100E1000E0EDF1E09E2F9219981718F49D919193AF
:100E2000F9CF1092F1018091F10188658093F10171
:100E30008091F001813069F41092F0018091F1010C
:100E40008093BB008091BC0083FDF8CF9092BC00E2
:100E500002C0D093BC008091F6018230E1F3809112
:100E6000F4018F3F31F08091F401803211F08091D4
:100E7000F4011092AD011092CF011092AC010E94CA
:100E8000FB0180E480937C0080917A0080648093F1
:100E90007A0080917A0086FDFCCFA0917800809145
:100EA0007900B0E0B82B28E833E10E94890AA70155
:100EB00096010E94FD07B901330F880B990B0E9420
:100EC000620920E030E04AE754E40E94BF082B01A9
:100ED0003C018091F6018111FCCFC093F601C093D3
:100EE000F5018092F4011092F3011092F201C09387
:100EF000F1018091F10188658093F1018091F00109
:100F0000813069F41092F0018091F1018093BB006F
:100F10008091BC0083FDF8CF9092BC0002C0D093BA
:100F2000BC008091F6018130E1F38091F3018111E1
:100F300003C08091F30101C081E0A0EDB1E0E7EFD3
:100F4000F1E09E2F9A19981718F49D919193F9CF7B
:100F50001092170280931802813031F488EB92E0EE
:100F60000E9474028C0102C000E010E080E391E076
:100F70000E94EB02B80180E090E00E94600920E04E
:100F800030E040E85BE30E94170A20E030E040E2F6
:100F900051E40E94170A42E00E943E038EE391E072
:100FA0000E94EB0281E491E00E94EB0284E491E074
:100FB0000E94EB0242E0C301B2010E943E0389E5B8
:100FC00091E00E94EB0281E491E00E94EB020E941A
:100FD000FB018091190290911A0201968F3F9105B1
:100FE00029F090931A028093190204C010921A02F9
:100FF000109219020E94CC01E1CE052E97FB1EF43F
:1010000000940E94140857FD07D00E941C0807FC9A
:1010100003D04EF40C9414085095409530952195CA
:101020003F4F4F4F5F4F0895909580957095619514
:101030007F4F8F4F9F4F0895A1E21A2EAA1BBB1B13
:10104000FD010DC0AA1FBB1FEE1FFF1FA217B30794
:10105000E407F50720F0A21BB30BE40BF50B661FAA
:10106000771F881F991F1A9469F76095709580956E
:1010700090959B01AC01BD01CF010895A29FB001E5
:10108000B39FC001A39F700D811D1124911DB29FBC
:10109000700D811D1124911D08955058BB27AA275A
:1010A0000E9465080C94D8090E94CA0938F00E9471
:1010B000D10920F039F49F3F19F426F40C94C709A4
:1010C0000EF4E095E7FB0C94C109E92F0E94E909B1
:1010D00058F3BA17620773078407950720F079F46D
:1010E000A6F50C940B0A0EF4E0950B2EBA2FA02D4A
:1010F0000B01B90190010C01CA01A0011124FF27C5
:10110000591B99F0593F50F4503E68F11A16F040BF
:10111000A22F232F342F4427585FF3CF46953795BE
:101120002795A795F0405395C9F77EF41F16BA0B83
:10113000620B730B840BBAF09150A1F0FF0FBB1F31
:10114000661F771F881FC2F70EC0BA0F621F731F7A
:10115000841F48F4879577956795B795F7959E3FD7
:1011600008F0B0CF9395880F08F09927EE0F979568
:10117000879508950E949D0908F481E008950E94D2
:10118000D3080C94D8090E94D10958F00E94CA09CA
:1011900040F029F45F3F29F00C94C10951110C94DF
:1011A0000C0A0C94C7090E94E90968F39923B1F36A
:1011B000552391F3951B550BBB27AA27621773077D
:1011C000840738F09F5F5F4F220F331F441FAA1F11
:1011D000A9F335D00E2E3AF0E0E832D091505040CD
:1011E000E695001CCAF72BD0FE2F29D0660F771F7B
:1011F000881FBB1F261737074807AB07B0E809F061
:10120000BB0B802DBF01FF2793585F4F3AF09E3FE5
:10121000510578F00C94C1090C940C0A5F3FE4F37B
:10122000983ED4F3869577956795B795F7959F5F28
:10123000C9F7880F911D9695879597F90895E1E074
:10124000660F771F881FBB1F621773078407BA07D3
:1012500020F0621B730B840BBA0BEE1F88F7E0952E
:1012600008950E94F10988F09F5798F0B92F9927A7
:10127000B751B0F0E1F0660F771F881F991F1AF081
:10128000BA95C9F714C0B13091F00E940B0AB1E0D1
:1012900008950C940B0A672F782F8827B85F39F0D0
:1012A000B93FCCF3869577956795B395D9F73EF41A
:1012B00090958095709561957F4F8F4F9F4F0895C2
:1012C000E89409C097FB3EF49095809570956195E0
:1012D0007F4F8F4F9F4F9923A9F0F92F96E9BB2796
:1012E0009395F695879577956795B795F111F8CF12
:1012F000FAF4BB0F11F460FF1BC06F5F7F4F8F4F7D
:101300009F4F16C0882311F096E911C0772321F072
:101310009EE8872F762F05C0662371F096E8862F0A
:1013200070E060E02AF09A95660F771F881FDAF761
:10133000880F9695879597F90895990F0008550F8E
:10134000AA0BE0E8FEEF16161706E807F907C0F04B
:1013500012161306E407F50798F0621B730B840B53
:10136000950B39F40A2661F0232B242B252B21F42D
:1013700008950A2609F4A140A6958FEF811D811DCD
:10138000089597F99F6780E870E060E008959FEF07
:1013900080EC089500240A9416161706180609060C
:1013A000089500240A9412161306140605060895DB
:1013B000092E0394000C11F4882352F0BB0F40F463
:1013C000BF2B11F460FF04C06F5F7F4F8F4F9F4FA3
:1013D000089557FD9058440F551F59F05F3F71F025
:1013E0004795880F97FB991F61F09F3F79F087958C
:1013F0000895121613061406551FF2CF4695F1DF15
:1014000008C0161617061806991FF1CF86957105A4
:10141000610508940895E894BB2766277727CB01D8
:1014200097F908950E949D0908F48FEF08950E948E
:101430002A0A0C94D8090E94CA0938F00E94D109DE
:1014400020F0952311F00C94C1090C94C7091124C4
:101450000C940C0A0E94E90970F3959FC1F3950F53
:1014600050E0551F629FF001729FBB27F00DB11D28
:10147000639FAA27F00DB11DAA1F649F6627B00DB8
:10148000A11D661F829F2227B00DA11D621F739FA1
:10149000B00DA11D621F839FA00D611D221F749FAF
:1014A0003327A00D611D231F849F600D211D822FF6
:1014B000762F6A2F11249F5750409AF0F1F088231D
:1014C0004AF0EE0FFF1FBB1F661F771F881F91504A
:1014D0005040A9F79E3F510580F00C94C1090C942F
:1014E0000C0A5F3FE4F3983ED4F3869577956795B1
:1014F000B795F795E7959F5FC1F7FE2B880F911D74
:101500009695879597F908950E949D09880B990BE8
:1015100008950E943E08B7FF0895821B930B08951B
:10152000EE0FFF1F0590F491E02D099481E090E00B
:0A153000F8940C949B0AF894FFCF86
:10153A00000000006301D000FB00AA012C010A018F
:10154A001E0100000000B8028802E8026402C80016
:10155A00740265026E616E00696E66006F766600DF
:10156A00526573697374616E6365203A2000204B7B
:10157A00000D0A0054656E73616F206E6F207069EA
:0C158A006E6F204130203A2000205600F7
:00000001FF
